:020000040800F2
:100000000080012089130008CD130008CD130008DB
:10001000CD130008CD130008CD1300080000000028
:10002000000000000000000000000000CD130008E8
:10003000CD13000800000000CD130008CD13000808
:10004000CD130008CD130008CD130008CD13000810
:10005000CD130008CD130008CD130008CD13000800
:10006000CD130008CD130008CD130008CD130008F0
:10007000CD130008CD130008CD130008CD130008E0
:10008000CD130008CD130008CD13000800000000B8
:10009000000000000000000000000000CD13000878
:1000A000CD130008CD130008CD130008CD130008B0
:1000B000CD130008CD130008CD130008CD130008A0
:1000C000CD130008CD130008CD130008CD13000890
:1000D000CD130008CD130008CD1300080000000068
:1000E00049130008CD130008CD13000800000000DC
:1000F000000000000000000000000000CD13000818
:1001000000000000CD130008CD130008CD13000837
:1001100000000000000000000000000000000000DF
:10012000CD130008CD130008CD130008CD1300082F
:10013000CD130008000000000000000000000000D7
:10014000000000000000000000000000CD130008C7
:10015000CD130008CD130008CD130008CD130008FF
:10016000CD130008CD1300080000000000000000BF
:10017000000000000000000000000000000000007F
:1001800000000000CD130008000000000000000087
:04019000CD13000883
:1001940080F0004002E000BF81F0004142001FBF38
:1001A4005FEA410392EA030F7FEA226C7FEA236C41
:1001B4006AD04FEA1262D2EB1363C1BFD218414036
:1001C40048404140B8BF5B42192B88BF704710F0CC
:1001D400004F40F4000020F07F4018BF404211F06F
:1001E400004F41F4000121F07F4118BF494292EAD7
:1001F400030F3FD0A2F1010241FA03FC10EB0C0003
:10020400C3F1200301FA03F100F0004302D549428F
:1002140060EB4000B0F5000F13D3B0F1807F06D33C
:1002240040084FEA310102F10102FE2A51D2B1F134
:10023400004F40EBC25008BF20F0010040EA030029
:100244007047490040EB0000013A28BFB0F5000FA9
:10025400EDD2B0FA80FCACF1080CB2EB0C0200FA5F
:100264000CF0AABF00EBC25052421843BCBFD040AE
:100274001843704792F0000F81F4000106BF80F428
:1002840000000132013BB5E74FEA41037FEA226CEB
:1002940018BF7FEA236C21D092EA030F04D092F0B6
:1002A400000F08BF0846704790EA010F1CBF0020EA
:1002B400704712F07F4F04D1400028BF40F0004047
:1002C400704712F100723CBF00F50000704700F067
:1002D400004343F0FE4040F4000070477FEA22628E
:1002E40016BF08467FEA23630146420206BF5FEA5F
:1002F400412390EA010F40F4800070474FF000035F
:1003040004E000BF10F0004348BF40425FEA000C25
:1003140008BF704743F0964301464FF000001CE0CD
:1003240050EA010208BF70474FF000030AE000BF23
:1003340050EA010208BF704711F0004302D5404261
:1003440061EB41015FEA010C02BF844601460020D3
:1003540043F0B64308BFA3F18053A3F50003BCFAEE
:100364008CF2083AA3EBC25310DB01FA02FC63449B
:1003740000FA02FCC2F12002BCF1004F20FA02F2A2
:1003840043EB020008BF20F00100704702F1200295
:1003940001FA02FCC2F1200250EA4C0021FA02F2F6
:1003A40043EB020008BF20EADC7070474FF0FF0CFB
:1003B4001CEAD0521EBF1CEAD15392EA0C0F93EAF6
:1003C4000C0F6FD01A4480EA010C400218BF5FEA98
:1003D40041211ED04FF0006343EA501043EA51110B
:1003E400A0FB01310CF00040B1F5000F3EBF490005
:1003F40041EAD3715B0040EA010062F17F02FD2A09
:100404001DD8B3F1004F40EBC25008BF20F00100EB
:10041400704790F0000F0CF0004C08BF49024CEA02
:10042400502040EA51207F3AC2BFD2F1FF0340EA94
:10043400C250704740F400004FF00003013A5DDC05
:1004440012F1190FDCBF00F000407047C2F1000246
:10045400410021FA02F1C2F1200200FA02FC5FEA33
:10046400310040F1000053EA4C0308BF20EADC707D
:10047400704792F0000F00F0004C02BF400010F4EF
:10048400000F013AF9D040EA0C0093F0000F01F09C
:10049400004C02BF490011F4000F013BF9D041EABE
:1004A4000C018FE70CEAD15392EA0C0F18BF93EAC0
:1004B4000C0F0AD030F0004C18BF31F0004CD8D1EA
:1004C40080EA010000F00040704790F0000F17BF71
:1004D40090F0004F084691F0000F91F0004F14D0B7
:1004E40092EA0C0F01D142020FD193EA0C0F03D10F
:1004F4004B0218BF084608D180EA010000F0004012
:1005040040F0FE4040F40000704740F0FE4040F4EC
:10051400400070474FF0FF0C1CEAD0521EBF1CEA8B
:10052400D15392EA0C0F93EA0C0F69D0A2EB0302A9
:1005340080EA010C49024FEA402037D04FF0805343
:1005440043EA111143EA10130CF000408B4238BF08
:100554005B0042F17D024FF4000C8B4224BF5B1A16
:1005640040EA0C00B3EB510F24BFA3EB510340EA64
:100574005C00B3EB910F24BFA3EB910340EA9C0012
:10058400B3EBD10F24BFA3EBD10340EADC001B0182
:1005940018BF5FEA1C1CE0D1FD2A3FF650AF8B4226
:1005A40040EBC25008BF20F0010070470CF0004C33
:1005B4004CEA50207F32C2BFD2F1FF0340EAC2505E
:1005C400704740F400004FF00003013A37E792F01F
:1005D400000F00F0004C02BF400010F4000F013A7D
:1005E400F9D040EA0C0093F0000F01F0004C02BF78
:1005F400490011F4000F013BF9D041EA0C0195E7E1
:100604000CEAD15392EA0C0F08D142027FF47DAF79
:1006140093EA0C0F7FF470AF084676E793EA0C0F69
:1006240004D14B023FF44CAF08466EE730F0004C67
:1006340018BF31F0004CCAD130F000427FF45CAFF7
:1006440031F000437FF43CAF5FE700BF42000ED2BD
:10065400B2F1FE4F0BD34FF09E03B3EB126209D4F9
:100664004FEA002343F0004323FA02F070474FF0AF
:100674000000704712F1610F01D1420202D14FF024
:10068400FF3070474FF00000704700BF0348044B31
:10069400834202D0034B03B1184770471C0000206B
:1006A4001C000020000000000548064B1B1AD90F4F
:1006B40001EBA301491002D0034B03B11847704763
:1006C4001C0000201C0000200000000010B5064C97
:1006D400237843B9FFF7DAFF044B13B10448AFF3AF
:1006E40000800123237010BD1C00002000000000C6
:1006F4001814000808B5054B1BB105490548AFF3AC
:100704000080BDE80840FFF7CFBF00BF0000000035
:10071400200000201814000880B485B000AF034600
:10072400FB710B46BB7113467B71BB799B08FB7352
:10073400BB7903F00303DBB29B00BB73FB79413B42
:100744007B733F4B1B68FA7B023253F82210BB7B4E
:100754000F2202FA03F3DB431846394B1B68FA7B7A
:100764000140023243F82210354B1B68FA7B0232F7
:1007740053F822107A7BBB7B02FA03F31846304B02
:100784001B68FA7B0143023243F822107B79012B68
:1007940019D12C4B1B689A68BB79012101FA03F328
:1007A4001946284B1B680A439A60264B1B68DA6873
:1007B400BB79012101FA03F3DB431946214B1B6882
:1007C4000A40DA6037E07B79022B19D11D4B1B6894
:1007D400DA68BB79012101FA03F31946194B1B6846
:1007E4000A43DA60174B1B689A68BB79012101FA46
:1007F40003F3DB431946134B1B680A409A601AE063
:100804007B79032B17D10F4B1B68DA68BB79012165
:1008140001FA03F319460B4B1B680A43DA60094BD0
:100824001B689A68BB79012101FA03F31946054B49
:100834001B680A439A6000BF1437BD4680BC7047EA
:10084400040000200000002080B483B000AF034601
:10085400FB71084B1B681A68FB79012101FA03F349
:100864001946044B1B680A431A6000BF0C37BD4687
:1008740080BC70470000002090B484B000AF0446F0
:10088400084611461A462346FB710346BB710B46C4
:100894007B7113463B71FB79413BFB73FB7B254A20
:1008A40052F82330BB60BB681B68BA79520003213D
:1008B40001FA02F2D2431A40BB681A60BB681B6893
:1008C4007979BA79520001FA02F21A43BB681A60C4
:1008D4007B79002B15D1BB68DB68BA795200032100
:1008E40001FA02F2D2431A40BB68DA60BB68DB68E3
:1008F4003979BA79520001FA02F21A43BB68DA6014
:1009040012E0BB685B68BA79012101FA02F2D243B2
:100914001A40BB685A60BB685B683979BA7901FAD6
:1009240002F21A43BB685A6000BF1037BD4690BC40
:10093400704700BF0800002080B485B000AF0346B4
:100944000A46FB711346BB710023FB73FB79413BE1
:10095400BB73BB7B0A4A52F82330BB60BB681B697C
:10096400BA79012101FA02F21A40BB7922FA03F39F
:10097400FB73FB7B18461437BD4680BC704700BF31
:100984000800002080B500AF00F004F9322000F028
:10099400C1F900220121144800F07EF9032000F07F
:1009A4002DF9052000F0B6F9032000F027F9962070
:1009B40000F096F9032000F021F9962000F090F958
:1009C400022000F01BF9962000F08AF9282000F09C
:1009D40095F80C2000F092F800F008F8062000F0DA
:1009E4008DF800BF80BD00BF0004024080B500AF99
:1009F400012000F083F8022000F08CF900BF80BDD4
:100A040080B584B000AF03460A46FB711346BB7140
:100A14000C4BFB60FB79032B0FD8FB7910333B4461
:100A240013F8042CBB791344DBB25BB263F07F038D
:100A34005BB2DBB2184600F061F800BF1037BD4668
:100A440080BD00BF0040145480B582B000AF786010
:100A540008E07B685A1C7A6093F90030DBB21846D0
:100A640000F076F87B6893F90030002BF1D100BFD9
:100A740000BF0837BD4680BD80B586B000AF786042
:100A84007B68002B03D1302000F062F831E00023B2
:100A94007B611AE07968184BA3FB0123DA0813463B
:100AA4009B0013445B00CA1AD3B23033D9B27B69BA
:100AB4005A1C7A614AB218333B4403F8102C7B6801
:100AC4000D4AA2FB0323DB087B607B68002BE1D18A
:100AD4000CE07B69013B7B6107F108027B691344ED
:100AE40093F90030DBB2184600F032F87B69002B32
:100AF400EFDC1837BD4680BDCDCCCCCC80B584B0FE
:100B040000AF0346FB71FB791B09FB73FB7903F010
:100B14000F03BB73002200210C4800F0BDF8FB7BDF
:100B2400184600F06BF8BB7B184600F067F8FB79B9
:100B3400012B03D1022000F0EDF802E0322000F096
:100B4400CFF800BF1037BD4680BD00BF000402408F
:100B540080B584B000AF0346FB71FB791B09FB73BE
:100B6400FB7903F00F03BB7301220021084800F056
:100B740093F8FB7B184600F041F8BB7B184600F065
:100B84003DF8322000F0ACF800BF1037BD4680BD00
:100B94000004024080B400AF164B1B6B154A43F0AF
:100BA40002031363144B1B68134A23F47F4313603B
:100BB400114B1B68104A43F4AA4313600E4B1B6885
:100BC4000D4A23F03F0313600B4B1B680A4A43F0A2
:100BD40015031360084B5B68074A23F0F70353605F
:100BE400054B5B69044A23F0F703536100BFBD461C
:100BF40080BC7047003802400004024080B582B0D7
:100C040000AF0346FB71FB7903F00103DBB21A4624
:100C14000421154800F040F8FB795B08DBB203F0CF
:100C24000103DBB21A4605210F4800F035F8FB79C1
:100C34009B08DBB203F00103DBB21A4606210A4823
:100C440000F02AF8FB79DB08DBB203F00103DBB226
:100C54001A460721044800F01FF800F007F800BF07
:100C64000837BD4680BD00BF0004024080B500AF18
:100C740001220221074800F00FF8012000F030F8AB
:100C840000220221034800F007F8322000F028F87F
:100C940000BF80BD0004024080B483B000AF786020
:100CA4000B46FB701346BB70BB78002B09D07B68E6
:100CB4005B69FA78012101FA02F21A437B685A61EE
:100CC40009E07B685B69FA78012101FA02F2D243F8
:100CD4001A407B685A6100BF0C37BD4680BC704720
:100CE40080B485B000AF78607B68542202FB03F3C4
:100CF4009B08FB600023BB6002E0BB680133BB6060
:100D0400BB68FA689A42F8D800BF00BF1437BD46E2
:100D140080BC704780B584B000AF78600023FB606E
:100D240006E04FF47A70FFF7DBFFFB680133FB60EA
:100D3400FA687B689A42F4D300BF00BF1037BD46FF
:100D440080BD000080B400AF044B1B68034A43F02D
:100D54000103136000BFBD4680BC704700380240E9
:100D640080B485B000AF0346FB71FB795B09FB736C
:100D7400FB7903F01F03BB73FB7B032B36D801A263
:100D840052F823F0990D0008AF0D0008C50D0008B6
:100D9400DB0D0008184B1B68BA7B012101FA02F233
:100DA4001146154A0B43136021E0144B1B68BA7BB0
:100DB400012101FA02F21146104A0B43136016E0B6
:100DC4000F4B1B68BA7B012101FA02F211460C4A4F
:100DD4000B4313600BE00B4B1B68BA7B012101FA38
:100DE40002F21146074A0B43136000E000BF00BF44
:100DF4001437BD4680BC7047303802403438024056
:100E0400403802404438024080B400AF00BF144B65
:100E14001B6903F00203002BF9D0114B5B6B114AE1
:100E240013600F4B1B690E4A23F0020313610C4B32
:100E340000225A6200BF0A4B1B6903F00203002B15
:100E4400F9D0074B5B6B084A1360054B1B69044AD6
:100E540023F00203136100BFBD4680BC704700BF8E
:100E640000040040380000203C00002080B500AFA2
:100E74001F4B1B6C1E4A43F002031364002302221F
:100E840006214120FFF7F8FC1A4B1B6A194A23F08C
:100E940070631362174B1B6A164A43F000731362A4
:100EA400154B53229A62144B4FF6FF72DA62124BBF
:100EB4009B69114A23F0030393610F4B9B690E4A0C
:100EC40043F0010393610C4B9B690B4A43F03003DD
:100ED4009361094B1B6A084A43F001031362064BF2
:100EE4001B68054A43F00103136000BF80BD00BFC7
:100EF40000380240000002400004004080B582B087
:100F040000AF00237B60FFF77FFF0B4B1B687B6008
:100F14007B68002B02D14FF0000308E07868FFF7EC
:100F2400EDF9034619460548FFF7F4FA0346184657
:100F34000837BD4680BD00BF3C0000200024744932
:100F440080B582B000AF00F0B9F9584B1B6B574A1B
:100F540043F00303136300F0C5F800F0F9F800F060
:100F640031F9FFF70FFDFFF781FFFFF7C7FF0346D6
:100F74004F4A1360FFF73AFD00210020FFF740FDC0
:100F84004C48FFF761FD00210120FFF739FD484B74
:100F94001B681846FFF75AFB03461846FFF76CFD1B
:100FA40000F0F8F803461A46434B1A8003220C213A
:100FB4004220FFF7B1FB0C20FFF746FC3F4B5B6878
:100FC4003E4A43F48073536000F0E4F803461A4643
:100FD4003B4B1A803A4B1B889BB21A46642302FB94
:100FE40003F3384A82FB03121A44D212DB17D31AD2
:100FF400DAB2354B1A70344B1B78DBB2184600F06A
:101004001DF9314B1B78DAB2304B1B789A4218D059
:1010140006210120FFF7F4FC2D48FFF715FD0621FA
:101024000120FFF7EDFC284B1B78DBB21846FFF7D5
:1010340023FD2848FFF708FD234B1B78DAB2234B26
:101044001A7001214120FFF777FC0346FB71224B04
:101054001B78012B25D1FB79002B22D1142000F021
:1010640014F91E4B1B6801331C4A13600E21012026
:10107400FFF7C6FC1A48FFF7E7FC0E210120FFF733
:10108400BFFC164B1B681846FFF7F6FC02E00A206B
:1010940000F0FBF801214120FFF74EFC0346002B32
:1010A400F5D00D4AFB79137080E700BF0038024089
:1010B4004C000020301400084400002000E100E04F
:1010C4004000002081000880420000201900002018
:1010D40040140008441400081800002048000020B0
:1010E4004814000880B500AFFFF72CFE0020FFF77E
:1010F40037FE0120FFF734FE6E20FFF731FE002398
:10110400032200214120FFF7B7FB01230022012124
:101114004120FFF7B1FB002302220A214220FFF7FE
:10112400ABFB0A4B5B6A094A23F470635362074BB7
:101134005B6A064A43F480735362012300220C2144
:101144004220FFF799FB00BF80BD00BF00040240AE
:1011540080B400AF0D4B5B6C0C4A43F48073536452
:101164000B4B00229A600A4B00225A63084B1B69FE
:10117400074A43F003031361054B9B68044A43F099
:101184000103936000BFBD4680BC70470038024035
:101194000020014080B400AF094B9B68084A43F02B
:1011A4008043936000BF064B1B6803F00203002BCF
:1011B400F9D0034BDB6C9BB21846BD4680BC70472C
:1011C4000020014080B400AF1B4B1B6C1A4A43F053
:1011D400010313644FF0804353229A624FF080431B
:1011E40040F2E732DA624FF080430022DA634FF0D4
:1011F4008043DB694FF0804243F06003D3614FF0DA
:101204008043DB694FF0804243F00803D3614FF021
:1012140080431B6A4FF0804243F4807313624FF0A3
:1012240080431B684FF0804243F08103136000BF8A
:10123400BD4680BC704700BF0038024080B483B014
:1012440000AF0346FB71FB79642B01D96423FB7166
:10125400FB7940F2E73202FB03F3074A82FB0312F5
:101264005211DB17D21A4FF08043DA6300BF0C37F8
:10127400BD4680BC704700BF1F85EB5180B500AFF1
:101284000020FFF7DBFF00BF80BD80B485B000AF56
:1012940078600023FB6002E0FB680133FB607B683D
:1012A40042F2D00203FB02F2FB689A42F4D800BF78
:1012B40000BF1437BD4680BC7047000080B400AF47
:1012C4001D4B1B681C4A43F00103136000BF1A4BFB
:1012D4001B6803F00203002BF9D0174B174A5A601E
:1012E400154B1B68144A43F08073136000BF124B04
:1012F4001B6803F00073002BF9D0114B1B68104AD4
:1013040043F0020313600C4B9B680B4A43F4805375
:101314009360094B9B68084A43F00203936000BF43
:10132400054B9B6803F00803002BF9D000BF00BFF6
:10133400BD4680BC704700BF00380240102A000739
:10134400003C024080B500AF0C4B5B6903F4805352
:10135400002B10D0094B5B69084A43F48053536156
:10136400FFF78CFFFFF742FB00210120FFF748FB4A
:101374000348FFF769FB00BF80BD00BF003C01408C
:101384005014000800200B490B4A0C4B02E01C5877
:101394000C5004300C189442F9D300200849094A2F
:1013A40001E0086004319142FBD300F00FF8FFF72D
:1013B400C7FD0000000000201C0000206814000885
:1013C4001C00002050000020FEE7000070B50D4B0B
:1013D4000D4D5B1B9C100026A64209D100F01AF8A3
:1013E4000A4D0B4B5B1B9C100026A64205D170BD19
:1013F40055F8043B98470136EEE755F8043B984707
:101404000136F2E760140008601400086014000854
:1014140064140008F8B500BFF8BC08BC9E467047C9
:0C142400F8B500BFF8BC08BC9E4670473D
:10143000422E53502E204D2E53502E20436E7400BA
:101440002020200025000000202020202000000077
:10145000456D657267656E63792053746F70000027
:04146000F906000881
:04146400D1060008A5
:10146800003C0140003801400000024000040240F6
:0C14780000080240000C024001FF0000D0
:040000050800138953
:00000001FF
