:020000040800F2
:1000000000800120ED0A0008310B0008310B0008C8
:10001000310B0008310B0008310B00080000000014
:10002000000000000000000000000000310B00088C
:10003000310B000800000000310B0008310B0008F4
:10004000310B0008310B0008310B0008310B0008A0
:10005000310B0008310B0008310B0008310B000890
:10006000310B0008310B0008310B0008310B000880
:10007000310B0008310B0008310B0008310B000870
:10008000310B0008310B0008310B000800000000A4
:10009000000000000000000000000000310B00081C
:1000A000310B0008310B0008310B0008310B000840
:1000B000310B0008310B0008310B0008310B000830
:1000C000310B0008310B0008310B0008310B000820
:1000D000310B0008310B0008310B00080000000054
:1000E000310B0008310B0008310B00080000000044
:1000F000000000000000000000000000310B0008BC
:1001000000000000310B0008310B0008310B000823
:1001100000000000000000000000000000000000DF
:10012000310B0008310B0008310B0008310B0008BF
:10013000310B00080000000000000000000000007B
:10014000000000000000000000000000310B00086B
:10015000310B0008310B0008310B0008310B00088F
:10016000310B0008310B0008000000000000000007
:10017000000000000000000000000000000000007F
:1001800000000000310B000800000000000000002B
:04019000310B000827
:100194000348044B834202D0034B03B11847704712
:1001A4001400002014000020000000000548064B45
:1001B4001B1AD90F01EBA301491002D0034B03B161
:1001C40018477047140000201400002000000000AD
:1001D40010B5064C237843B9FFF7DAFF044B13B18B
:1001E4000448AFF300800123237010BD14000020E5
:1001F400000000007C0B000808B5054B1BB1054945
:100204000548AFF30080BDE80840FFF7CFBF00BF4B
:1002140000000000180000207C0B000890B484B09B
:1002240000AF0446084611461A462346FB710346AE
:10023400BB710B467B7113463B71FB79413BFB73EE
:10024400FB7B254A52F82330BB60BB681B68BA7934
:100254005200032101FA02F2D2431A40BB681A6029
:10026400BB681B687979BA79520001FA02F21A4321
:10027400BB681A607B79002B15D1BB68DB68BA793F
:100284005200032101FA02F2D2431A40BB68DA6039
:10029400BB68DB683979BA79520001FA02F21A4371
:1002A400BB68DA6012E0BB685B68BA79012101FAC5
:1002B40002F2D2431A40BB685A60BB685B68397962
:1002C400BA7901FA02F21A43BB685A6000BF1037C8
:1002D400BD4690BC704700BF0000002080B485B0CC
:1002E40000AF03460A46FB711346BB710023FB7340
:1002F400FB79413BBB73BB7B0A4A52F82330BB609A
:10030400BB681B69BA79012101FA02F21A40BB7970
:1003140022FA03F3FB73FB7B18461437BD4680BCFB
:10032400704700BF0000002080B500AF00F008F95E
:10033400322000F0CDF900220121144800F08AF99E
:10034400032000F039F9052000F0C2F9032000F081
:1003540033F9962000F0A2F9032000F02DF996203D
:1003640000F09CF9022000F027F9962000F096F99D
:10037400282000F095F80C2000F092F800F008F81E
:10038400062000F08DF800BF80BD00BF00040240CD
:1003940080B500AF012000F083F8022000F098F946
:1003A40000BF80BD80B584B000AF03460A46FB7130
:1003B4001346BB710C4BFB60FB79032B0FD8FB7905
:1003C40010333B4413F8042CBB791344DBB25BB207
:1003D40063F07F035BB2DBB2184600F061F800BF44
:1003E4001037BD4680BD00BF0040145480B582B0B4
:1003F40000AF786008E07B685A1C7A6093F900309B
:10040400DBB2184600F07AF87B6893F90030002BD1
:10041400F1D100BF00BF0837BD4680BD80B586B0AE
:1004240000AF78607B68002B03D1302000F066F8C1
:1004340031E000237B611AE07968184BA3FB0123A8
:10044400DA0813469B0013445B00CA1AD3B2303354
:10045400D9B27B695A1C7A614AB218333B4403F817
:10046400102C7B680D4AA2FB0323DB087B607B68AE
:10047400002BE1D10CE07B69013B7B6107F10802B1
:100484007B69134493F90030DBB2184600F036F868
:100494007B69002BEFDC1837BD4680BDCDCCCCCCBE
:1004A40080B584B000AF0346FB71FB791B09FB7375
:1004B400FB7903F00F03BB73002200210E4800F008
:1004C400C9F8FB7B184600F077F8BB7B184600F0B0
:1004D40073F8FB79012B02D0FB79022B03D10220A4
:1004E40000F0F6F803E0322000F0D8F800BF00BFB7
:1004F4001037BD4680BD00BF0004024080B584B003
:1005040000AF0346FB71FB791B09FB73FB7903F016
:100514000F03BB7301220021084800F09BF8FB7B0A
:10052400184600F049F8BB7B184600F045F8322025
:1005340000F0B4F800BF1037BD4680BD000402408F
:1005440080B400AF1A4B1B6B194A43F002031363C8
:10055400184B1B68174A23F47F431360154B1B6821
:10056400144A43F4AA431360124B1B68114A23F044
:100574003F0313600F4B1B680E4A43F015031360CF
:100584000C4B5B680B4A23F0F7035360094B9B68E1
:10059400084A43F4AA4343F015039360054B5B698F
:1005A400044A23F0F703536100BFBD4680BC704783
:1005B400003802400004024080B582B000AF034618
:1005C400FB71FB7903F00103DBB21A4604211548E1
:1005D40000F040F8FB795B08DBB203F00103DBB207
:1005E4001A4605210F4800F035F8FB799B08DBB269
:1005F40003F00103DBB21A4606210A4800F02AF888
:10060400FB79DB08DBB203F00103DBB21A460721F6
:10061400044800F01FF800F007F800BF0837BD4693
:1006240080BD00BF0004024080B500AF012202215A
:10063400074800F00FF8012000F030F800220221F2
:10064400034800F007F8322000F028F800BF80BD0E
:100654000004024080B483B000AF78600B46FB70A6
:100664001346BB70BB78002B09D07B685B69FA78B2
:10067400012101FA02F21A437B685A6109E07B689E
:100684005B69FA78012101FA02F2D2431A407B68CD
:100694005A6100BF0C37BD4680BC704780B485B03A
:1006A40000AF78607B68542202FB03F39B08FB6075
:1006B4000023BB6002E0BB680133BB60BB68FA681F
:1006C4009A42F8D800BF00BF1437BD4680BC7047BB
:1006D40080B584B000AF78600023FB6006E04FF47F
:1006E4007A70FFF7DBFFFB680133FB60FA687B6815
:1006F4009A42F4D300BF00BF1037BD4680BD00004E
:1007040080B582B000AF00F0ABF9554B1B6B544A77
:1007140043F00303136300F0BFF800F0E1F800F0C6
:1007240019F9FFF701FEFFF733FE00210020FFF760
:1007340039FE4C48FFF75AFE00F0F4F803461A4617
:10074400494B1A8000F0EEF803461A46474B1A80CC
:10075400464B1B889BB21A46642302FB03F3444AAC
:1007640082FB03121A44D212DB17D31ADAB2414BBA
:100774001A70404B1B78DBB2184600F027F93D4B4A
:100784001B78DAB23C4B1B789A421FD0002101201F
:10079400FFF708FE3948FFF729FE06210120FFF77D
:1007A40001FE3748FFF722FE06210120FFF7FAFD7C
:1007B400304B1B78DBB21846FFF730FE3148FFF7A9
:1007C40015FE2C4B1B78DAB22B4B1A7001214120F9
:1007D400FFF784FD0346FB712B4B1B78012B38D1AB
:1007E400FB79002B35D1322000F010F90121412092
:1007F400FFF774FD0346FB71FB79002B29D1234BD2
:100804001B680133214A136000210020FFF7CAFD51
:100814001F48FFF7EBFD0E210020FFF7C3FD1D4825
:10082400FFF7E4FD0E210020FFF7BCFD174B1B680A
:100834001846FFF7F3FD02E00A2000F0E7F8012173
:100844004120FFF74BFD0346002BF5D0322000F08A
:10085400DDF80D4AFB7913700A2000F0D7F871E730
:1008640000380240940B00083400002030000020BF
:10087400810008803200002011000020A40B000831
:10088400AC0B0008B00B000810000020380000205A
:10089400B40B0008C40B000880B500AF002303228A
:1008A40000214120FFF7BAFC01230022012141204D
:1008B400FFF7B4FC002302220A214220FFF7AEFC1A
:1008C400064B5B6A054A23F470635362034B5B6A0D
:1008D400024A43F48073536200BF80BD00040240A7
:1008E40080B400AF0D4B5B6C0C4A43F480735364CB
:1008F4000B4B00229A600A4B00225A63084B1B6977
:10090400074A43F003031361054B9B68044A43F011
:100914000103936000BFBD4680BC704700380240AD
:100924000020014080B400AF094B9B68084A43F0A3
:100934008043936000BF064B1B6803F00203002B47
:10094400F9D0034BDB6C9BB21846BD4680BC7047A4
:100954000020014080B400AF1B4B1B6C1A4A43F0CB
:10096400010313644FF0804353229A624FF0804393
:1009740040F2E732DA624FF080430022DA634FF04C
:100984008043DB694FF0804243F06003D3614FF052
:100994008043DB694FF0804243F00803D3614FF09A
:1009A40080431B6A4FF0804243F4807313624FF01C
:1009B40080431B684FF0804243F08103136000BF03
:1009C400BD4680BC704700BF0038024080B483B08D
:1009D40000AF0346FB71FB79642B01D96423FB71DF
:1009E400FB7940F2E73202FB03F3074A82FB03126E
:1009F4005211DB17D21A4FF08043DA6300BF0C3771
:100A0400BD4680BC704700BF1F85EB5180B485B0E4
:100A140000AF7860104B114A5A600F4B00229A6065
:100A24000D4B05221A600023FB6009E000BF0A4B4E
:100A34001B6803F48033002BF9D0FB680133FB609F
:100A4400FA687B689A42F1D3034B00221A6000BF14
:100A54001437BD4680BC704710E000E01F48010019
:100A640080B400AF1D4B1B681C4A43F001031360A4
:100A740000BF1A4B1B6803F00203002BF9D0174B7D
:100A8400174A5A60154B1B68144A43F0807313606D
:100A940000BF124B1B6803F00073002BF9D0114BFD
:100AA4001B68104A43F0020313600C4B9B680B4A0B
:100AB40043F480539360094B9B68084A43F0020354
:100AC400936000BF054B9B6803F00803002BF9D02B
:100AD40000BF00BFBD4680BC704700BF0038024065
:100AE40010540007003C024000200B490B4A0C4BF9
:100AF40002E01C580C5004300C189442F9D3002026
:100B04000849094A01E0086004319142FBD300F02E
:100B14000FF8FFF7F5FD000000000020140000208E
:100B2400D40B0008140000203C000020FEE7000065
:100B340070B50D4B0D4D5B1B9C100026A64209D1D0
:100B440000F01AF80A4D0B4B5B1B9C100026A642C2
:100B540005D170BD55F8043B98470136EEE755F8CA
:100B6400043B98470136F2E7CC0B0008CC0B000895
:100B7400CC0B0008D00B0008F8B500BFF8BC08BCCB
:100B84009E467047F8B500BFF8BC08BC9E46704747
:100B940053706565643A2020202020436E743A0027
:100BA40053706565643A2000202020002500000071
:100BB4004F626A65637420436F756E743A00000077
:080BC400202020202000000089
:040BCC00FD0100081F
:040BD000D501000843
:100BD400000002400004024000080240000C0240F1
:040BE40001FF00000D
:0400000508000AEDF8
:00000001FF
